:100000000C945D000C9485000C9485000C94850084
:100010000C9485000C9485000C9485000C9485004C
:100020000C9485000C9485000C9485000C9485003C
:100030000C9485000C9485000C9485000C9485002C
:100040000C94DB030C9485000C9485000C948500C3
:100050000C9485000C9485000C9485000C9485000C
:100060000C9485000C94850000000008000201003B
:100070000003040700000000000000000000000072
:10008000250028002B0000000000240027002A0083
:10009000040404040404040402020202020203032E
:1000A0000303030301020408102040800102040836
:1000B0001020010204081020480511241FBECFEFB4
:1000C000D8E0DEBFCDBF21E0A4E5B1E001C01D92C4
:1000D000AB37B207E1F711E0A0E0B1E0E2E7FFE003
:1000E00002C005900D92A435B107D9F710E0CDE517
:1000F000D0E004C02197FE010E94BF05CC35D10796
:10010000C9F70E9425040C94B7070C94000090E0F6
:10011000FC01EC55FF4F249180579F4FFC018491C7
:10012000882399F090E0880F991FFC01EA57FF4F50
:10013000A591B491FC01E458FF4F859194918FB73C
:10014000F894EC91E22BEC938FBF0895AF92BF929D
:10015000CF92DF92EF92FF920F931F93CF93DF9393
:100160006C017B018B01040F151FEB015E01AE18C2
:10017000BF08C017D10759F06991D601ED91FC91E4
:100180000190F081E02DC6010995892B79F7C50111
:10019000DF91CF911F910F91FF90EF90DF90CF9063
:1001A000BF90AF90089590E0FC01E859FF4F249173
:1001B000FC01EC55FF4F3491FC01E057FF4FE491F7
:1001C000EE23C9F0222339F0233001F1A8F42130C5
:1001D00019F1223029F1F0E0EE0FFF1FE458FF4F34
:1001E000A591B4918FB7F894EC91611126C0309528
:1001F0003E233C938FBF08952730A9F02830C9F0E3
:10020000243049F7809180008F7D03C08091800069
:100210008F7780938000DFCF84B58F7784BDDBCF6D
:1002200084B58F7DFBCF8091B0008F778093B00035
:10023000D2CF8091B0008F7DF9CF3E2BDACF1F93C4
:10024000CF93DF93182FEB010E948700209739F49A
:1002500060E0812FDF91CF911F910C94D300CF3FAD
:10026000D10511F461E0F5CFE12FF0E0E859FF4F3F
:10027000E491E33031F140F4E130B1F0E230E1F00B
:10028000C038D1057CF7E4CFE73029F1E83059F1E7
:10029000E430B1F780918000806280938000D09339
:1002A0008B00C0938A0004C084B5806884BDC7BD3C
:1002B000DF91CF911F91089584B5806284BDC8BD40
:1002C000F7CF80918000806880938000D093890070
:1002D000C0938800EDCF8091B00080688093B0001B
:1002E000C093B300E5CF8091B00080628093B000EE
:1002F000C093B400DDCF3FB7F8948091590190913D
:100300005A01A0915B01B0915C0126B5A89B05C084
:100310002F3F19F00196A11DB11D3FBFBA2FA92F84
:10032000982F8827BC01CD01620F711D811D911D81
:1003300042E0660F771F881F991F4A95D1F70895ED
:10034000089590E080E008950F931F93CF93DF937B
:100350008B01EA01BC0189E00E941F01B8018AE01B
:100360000E941F01BE018BE0DF91CF911F910F9181
:100370000C941F018F929F92AF92BF920F931F9385
:10038000CF93DF93CDB7DEB7A1970FB6F894DEBF5A
:100390000FBECDBF19A2423008F44AE08E010F5DB6
:1003A0001F4F842E912CB12CA12CA50194010E94E9
:1003B0009D05E62FB901CA01EA3044F5E05DD80198
:1003C000EE938D01232B242B252B79F790E080E0F1
:1003D000109769F0FD0101900020E9F73197AF0116
:1003E0004A1B5B0BBD018FE591E00E94A600A19620
:1003F0000FB6F894DEBF0FBECDBFDF91CF911F9136
:100400000F91BF90AF909F908F900895E95CD7CFE8
:10041000FC0180819181009711F00C946106089590
:10042000EF92FF920F931F93CF93DF93EC017B0129
:10043000FB0101900020E9F731978F01061B170B94
:1004400088819981009729F02A813B812017310703
:1004500088F4B8016F5F7F4F0E94EA060097B9F0F9
:10046000998388831B830A832C813D81232B11F47C
:10047000FC0110821D830C83B70188819981DF9173
:10048000CF911F910F91FF90EF900C94B00788814E
:100490009981009711F00E946106198218821D82CD
:1004A0001C821B821A82DF91CF911F910F91FF90C6
:1004B000EF900895CF93DF93EC0160E08E810E946E
:1004C000D30061E08E810E94D30060E08E810E94A3
:1004D000D3008BE891E00197F1F7DF91CF91089578
:1004E000CF92DF92EF92FF920F931F93CF93DF9300
:1004F0006C017C0187E0E80EF11CD0E0C0E0062F23
:1005000010E0B8010C2E02C0759567950A94E2F7C9
:100510006170F70181917F010E94D3002196C43060
:10052000D10579F7C601DF91CF911F910F91FF900F
:10053000EF90DF90CF900C945A02CF92DF92EF921F
:10054000FF920F931F93CF93DF93EC01F62E642F4E
:100550008C810E94D3008D818F3F19F060E00E9452
:10056000D3000F2D10E08F8584FF25C06E0187E03A
:10057000C80ED11CF12CE12CB8010E2C02C07595CF
:1005800067950A94E2F76170F60181916F010E940C
:10059000D300FFEFEF1AFF0A88E0E816F10461F7D5
:1005A000CE01DF91CF911F910F91FF90EF90DF90DF
:1005B000CF900C945A02B80184E0759567958A959E
:1005C000E1F7CE010E9470026F2DCE01DF91CF9135
:1005D0001F910F91FF90EF90DF90CF900C947002DD
:1005E00040E0682F8FE591E00C949D02CF93DF935C
:1005F000823029F490916E01986090936E018093FF
:1006000072011092730180E48093740180E1809301
:10061000750180E580937601809163010E948700D7
:10062000809164018F3F11F00E94870080916501E5
:100630000E948700CFE5D1E09E012F553140809187
:100640006E0184FD0AC084E090E0219628173907E6
:100650003CF48E810E948700EFCF88E090E0F5CFD8
:100660008BE39DE00197F1F760E0809163010E94C8
:10067000D30060E0809165010E94D3008091640105
:100680008F3F19F060E00E94D30080916E0184FDDD
:1006900039C063E08FE591E00E947002CBE4D6E4BC
:1006A000CE010197F1F763E08FE591E00E947002BF
:1006B0002197F1F763E08FE591E00E94700283E5F6
:1006C00092E00197F1F762E08FE591E00E947002FD
:1006D00080916E0180620E94F00284E080936F013D
:1006E0008CE00E94F00281E00E94F0028BE39FE127
:1006F0000197F1F782E08093700186E0DF91CF915E
:100700000C94F00280620E94F0028BE496E4019760
:10071000F1F780916E0180620E94F00283E592E021
:100720000197F1F780916E0180620E94F002D0CFB4
:1007300041E00E949D0281E090E00895CF92DF9217
:10074000EF92FF92CF93DF936C01EB01E091720186
:10075000E23078F5E150F0E0E15AFE4F848980689C
:100760000E94F0020D2C000CEE08FF084AE0C701C1
:10077000B601F7FE0EC041E06DE28FE591E00E9408
:100780009D0266277727CB016C197D098E099F0989
:100790004AE00E94BA014C815D81688179818FE5D0
:1007A00091E0DF91CF91FF90EF90DF90CF900C948C
:1007B000A600E1E0D0CF1F920F920FB60F92112446
:1007C0002F933F938F939F93AF93BF938091550146
:1007D00090915601A0915701B09158013091540168
:1007E00023E0230F2D3758F50196A11DB11D20934D
:1007F00054018093550190935601A0935701B093F3
:1008000058018091590190915A01A0915B01B091DA
:100810005C010196A11DB11D8093590190935A016D
:10082000A0935B01B0935C01BF91AF919F918F91B9
:100830003F912F910F900FBE0F901F90189526E8B3
:10084000230F0296A11DB11DD2CFCF93DF9300D00D
:1008500000D000D0CDB7DEB7789484B5826084BD77
:1008600084B5816084BD85B5826085BD85B58160B4
:1008700085BD80916E00816080936E001092810032
:1008800080918100826080938100809181008160ED
:1008900080938100809180008160809380008091AE
:1008A000B10084608093B1008091B000816080933A
:1008B000B00080917A00846080937A0080917A0001
:1008C000826080937A0080917A00816080937A00C0
:1008D00080917A00806880937A001092C10082E053
:1008E0000E94F602E1E0809172018111E0E0E19561
:1008F000F0E0E15AFE4F848980680E94F0024EE0E9
:1009000050E062E171E08FE591E00E94A6008CE08A
:100910000E94870089E00E9487008AE00E94870089
:100920008BE00E94870090E4792E00E010E0709246
:100930007C0080917A00806480937A0080917A00B4
:1009400086FDFCCFE0907800F0907900F0925E0197
:10095000E0925D01C7010197873C9105F0F41A828E
:1009600019821C821B821E821D8261E271E0CE010F
:1009700001960E941002BE016F5F7F4FC7010E9467
:100980009E03CE0101960E94080250E040E06FEF06
:1009900070E090E080E00E94A401E0905D01F090A2
:1009A0005E01C7018A5C91098A329140F0F41A8293
:1009B00019821C821B821E821D8263E371E0CE01BC
:1009C00001960E941002BE016F5F7F4FC7010E9417
:1009D0009E03CE0101960E9408024FEF50E070E0A6
:1009E00060E090E080E00E94A401E0905D01F09062
:1009F0005E0186EFE81681E0F806F4F01A821982AB
:100A00001C821B821E821D8264E471E0CE0101966D
:100A10000E941002BE016F5F7F4FC7010E949E03BC
:100A2000CE0101960E94080250E040E070E060E0D4
:100A30008FEF90E00E94A4010E947B014B015C01BA
:100A400088EEC82E83E0D82EE12CF12C0E947B0189
:100A5000681979098A099B09683E734081059105E7
:100A6000A8F321E0C21AD108E108F10888EE880E47
:100A700083E0981EA11CB11CC114D104E104F1044F
:100A800029F70115110509F452CF0E9400004FCF3C
:100A9000EFE5F1E0138212828AE091E09183808396
:100AA00087E084838FEF858386E0868385E0878374
:100AB00084E0808783E0818782E0828713861486C2
:100AC00015861686178681E00C94F6022F923F92C7
:100AD0004F925F926F927F928F929F92AF92BF924E
:100AE000CF92DF92EF92FF920F931F93CF93DF93FA
:100AF000CDB7DEB7CA1BDB0B0FB6F894DEBF0FBE57
:100B0000CDBF09942A88398848885F846E847D84A3
:100B10008C849B84AA84B984C884DF80EE80FD80A5
:100B20000C811B81AA81B981CE0FD11D0FB6F8941B
:100B3000DEBF0FBECDBFED010895A1E21A2EAA1BA4
:100B4000BB1BFD010DC0AA1FBB1FEE1FFF1FA2177D
:100B5000B307E407F50720F0A21BB30BE40BF50B7A
:100B6000661F771F881F991F1A9469F76095709503
:100B7000809590959B01AC01BD01CF010895EE0FCA
:100B8000FF1F0590F491E02D09940F931F93CF93CD
:100B9000DF938230910510F482E090E0E0917901DA
:100BA000F0917A0130E020E0B0E0A0E0309799F4D5
:100BB0002115310509F44AC0281B390B24303105B1
:100BC000D8F58A819B816115710589F1FB019383B9
:100BD0008283FE0111C04081518102811381481737
:100BE0005907E0F04817590799F4109761F01296E9
:100BF0000C93129713961C933296CF01DF91CF91ED
:100C00001F910F9108950093790110937A01F4CF09
:100C10002115310551F04217530738F0A901DB01C6
:100C20009A01BD01DF01F801C1CFEF01F9CF909327
:100C30007A0180937901CDCFFE01E20FF31F8193FA
:100C400091932250310939832883D7CF209177019E
:100C500030917801232B41F420910201309103015E
:100C600030937801209377012091000130910101A8
:100C70002115310541F42DB73EB740910401509143
:100C80000501241B350BE0917701F0917801E21703
:100C9000F307A0F42E1B3F0B2817390778F0AC019F
:100CA0004E5F5F4F2417350748F04E0F5F1F50937C
:100CB000780140937701819391939FCFF0E0E0E03A
:100CC0009CCFCF93DF930097E9F0FC01329713821A
:100CD0001282A0917901B0917A01ED0130E020E01B
:100CE0001097A1F420813181820F931F2091770109
:100CF000309178012817390709F061C0F093780125
:100D0000E0937701DF91CF910895EA01CE17DF07D5
:100D1000E8F54A815B819E0141155105B1F7E90172
:100D2000FB83EA8349915991C40FD51FEC17FD0746
:100D300061F4808191810296840F951FE901998366
:100D40008883828193819B838A83F0E0E0E012961E
:100D50008D919C9113970097B9F52D913C91119726
:100D6000CD010296820F931F209177013091780177
:100D70002817390739F6309751F510927A011092F9
:100D80007901B0937801A0937701BCCFD383C2835C
:100D900040815181840F951FC817D90761F44E5FB8
:100DA0005F4F88819981480F591F518340838A8101
:100DB0009B81938382832115310509F0B0CFF09395
:100DC0007A01E09379019ECFFD01DC01C0CF13824F
:100DD0001282D7CFB0E0A0E0E0EFF6E00C94680517
:100DE0008C01009751F4CB010E94C5058C01C8010C
:100DF000CDB7DEB7E0E10C948405FC01E60FF71FE8
:100E00009C0122503109E217F30708F49DC0D90173
:100E1000CD91DC911197C617D70798F0C530D10551
:100E200030F3CE0104978617970708F3C61BD70B3C
:100E30002297C193D1936D937C93CF010E94610659
:100E4000D6CF5B01AC1ABD0A4C018C0E9D1EA09141
:100E50007901B0917A01512C412CF12CE12C1097A1
:100E600031F580917701909178018815990509F005
:100E70005CC04616570608F058C08091000190915A
:100E80000101009741F48DB79EB740910401509144
:100E90000501841B950BE817F90708F055C0F0937E
:100EA0007801E0937701F90171836083A0CF8D9180
:100EB0009C91119712966C90129713967C901397B1
:100EC000A815B90559F56C0142E0C40ED11CCA142D
:100ED000DB0420F1AC014A195B09DA01129615977F
:100EE00080F06282738251834083D9016D937C9339
:100EF000E114F10471F0D7011396FC93EE9312976D
:100F000076CF22968C0F9D1FF90191838083F30188
:100F1000EFCFF0937A01E093790169CF4816590633
:100F200008F42C017D01D3019ACFCB010E94C505A5
:100F30007C01009749F0AE01B8010E94A707C801E3
:100F40000E946106870153CF10E000E050CFFB0103
:100F5000DC0102C001900D9241505040D8F7089535
:100F6000FB01DC0101900D920020E1F70895F89457
:020F7000FFCFB1
:100F720000007B018000000000009803A600A10190
:100F8200A0012D464F544F5245534953544F522DB1
:100F920000204C4544205645524445202020202024
:100FA200202000204C454420415A554C202020202E
:100FB20020202000204C454420524F4A4F20202020
:040FC20020202000CB
:00000001FF
